:100000000C9445010C9466010C9466010C946601F5
:100010000C9466010C9466010C9466010C946601C4
:100020000C9466010C9466010C9466010C94290FE3
:100030000C9466010C9466010C9466010C946601A4
:100040000C9466010C9466010C9466010C94660194
:100050000C9466010C9466010C9466010C94552175
:100060000C9466010C94BF020C9468010C94660118
:100070000C9466010C9466010C9466010C94660164
:100080000C9466010C9466010C9466010C94660154
:100090000C94EA020C949B010C9466010C9466018A
:1000A0000C9466010C9466010C9466010C94660134
:1000B0000C9466010C9466010C9466010C94660124
:1000C0000C9466010C9466010C9466010C94150363
:1000D0000C94CE010C9466010C9440030C94010224
:1000E0000C94660105A84CCDB2D44EB93836A9029D
:1000F0000C50B9918688083CA6AAAA2ABE00000026
:10010000803F08000000BE922449123EABAAAA2AF2
:10011000BECDCCCC4C3E00000080BEABAAAAAA3E0D
:1001200000000000BF000000803F00000000000849
:100130004178D3BB4387D1133D190E3CC3BD4282E6
:10014000AD2B3E68EC8276BED98FE1A93E4C80EFA4
:10015000FFBE01C4FF7F3F0000000000000102035A
:100160000506070841524D3B414E474C453B484F21
:1001700052495A4F4E3B4241524F3B4D41473B48FB
:10018000454144465245453B4845414441444A3B2C
:1001900043414D535441423B00524F4C4C3B50491C
:1001A0005443483B5941573B414C543B506F733B80
:1001B000506F73523B4E6176523B4C4556454C3B1B
:1001C0004D41473B56454C3B00010210202008089A
:1001D00010204010204080020102010804020101A9
:1001E0000204081020408080402010080402018092
:1001F00004020180402010080402010804020101E9
:1002000002040810204080010204081020408005EC
:10021000050505070508080808020202020A0A087F
:1002200008040404040101010101010101030303A5
:100230000303030303040707070C0C0C0C0C0C0C42
:100240000C0202020206060606060606060B0B0B49
:100250000B0B0B0B0B00002200250028002B002E9F
:10026000003100340002010000050108010B01000B
:10027000002100240027002A002D00300033000157
:10028000010000040107010A010011241FBECFEF85
:10029000D1E2DEBFCDBF00E00CBF12E0A0E0B2E0D3
:1002A000EEEEFCE400E00BBF02C007900D92AE350D
:1002B000B107D9F72CE0AEE5B2E001C01D92A93537
:1002C000B207E1F70E94CE220C94DD220C940000CC
:1002D0001F920F920FB60F9211240BB60F928F93AD
:1002E0009F93EF93FF9380915E049091620498171F
:1002F00071F08F5F87FD80E094E0899FF001112409
:10030000E25AFD4F90819093C60080935E049091D5
:100310006204891305C08091C1008F7D8093C10064
:10032000FF91EF919F918F910F900BBE0F900FBE99
:100330000F901F9018951F920F920FB60F921124D5
:100340000BB60F928F939F93EF93FF9380915F046F
:1003500090916304981771F08F5F87FD80E094E0BF
:10036000899FF0011124E25AFD4F91819093CE00B4
:1003700080935F0490916304891305C08091C90044
:100380008F7D8093C900FF91EF919F918F910F9086
:100390000BBE0F900FBE0F901F9018951F920F92DB
:1003A0000FB60F9211240BB60F928F939F93EF937A
:1003B000FF938091600490916404981771F08F5FAF
:1003C00087FD80E094E0899FF0011124E25AFD4FFF
:1003D00092819093D6008093600490916404891375
:1003E00005C08091D1008F7D8093D100FF91EF9166
:1003F0009F918F910F900BBE0F900FBE0F901F908B
:1004000018951F920F920FB60F9211240BB60F92F0
:100410008F939F93EF93FF93809161049091650474
:10042000981771F08F5F87FD80E094E0899FF0015D
:100430001124E25AFD4F9381909336018093610419
:1004400090916504891305C0809131018F7D80935F
:100450003101FF91EF919F918F910F900BBE0F9003
:100460000FBE0F901F901895813061F028F08230F8
:1004700079F0833099F008958091C1008062809373
:10048000C10008958091C90080628093C9000895D9
:100490008091D10080628093D100089580913101D4
:1004A0008062809331010895CF92DF92EF92FF92A4
:1004B000CF93C82F9A01AB0160E079E08DE390E023
:1004C0000E94EF2521503109410951095695479560
:1004D00037952795C32ED42EE52EFF24C130F9F091
:1004E00088F0C23049F1C33091F582E08093300149
:1004F000C092350120933401809131018869809345
:10050000310125C082E08093C000C092C5002093D5
:10051000C4008091C10088698093C10018C082E046
:100520008093C800C092CD002093CC008091C90078
:1005300088698093C9000BC0C093D000C092D500D9
:100540002093D4008091D10088698093D100CF910D
:10055000FF90EF90DF90CF900895E62FF0E0DF015D
:10056000A659B74F9C9121E0290F34E0939FE00DED
:10057000F11D1124EA59FB4F80832C9308951F929B
:100580000F920FB60F9211240BB60F922F933F9339
:100590004F935F936F937F938F939F93AF93BF938B
:1005A000EF93FF938091C60060E00E94AD02FF913F
:1005B000EF91BF91AF919F918F917F916F915F91DB
:1005C0004F913F912F910F900BBE0F900FBE0F9048
:1005D0001F9018951F920F920FB60F9211240BB611
:1005E0000F922F933F934F935F936F937F938F93CC
:1005F0009F93AF93BF93EF93FF938091CE0061E001
:100600000E94AD02FF91EF91BF91AF919F918F91A9
:100610007F916F915F914F913F912F910F900BBE02
:100620000F900FBE0F901F9018951F920F920FB64C
:100630000F9211240BB60F922F933F934F935F931A
:100640006F937F938F939F93AF93BF93EF93FF939A
:100650008091D60062E00E94AD02FF91EF91BF91C0
:10066000AF919F918F917F916F915F914F913F914A
:100670002F910F900BBE0F900FBE0F901F901895EB
:100680001F920F920FB60F9211240BB60F922F9359
:100690003F934F935F936F937F938F939F93AF930A
:1006A000BF93EF93FF938091360163E00E94AD0208
:1006B000FF91EF91BF91AF919F918F917F916F913A
:1006C0005F914F913F912F910F900BBE0F900FBEF6
:1006D0000F901F901895282F30E0D901AA59B74FD5
:1006E0009C91F90184E0989FE00DF11D1124EA59D5
:1006F000FB4F8081F901E659F74F2081291711F04E
:100700009F5F9C930895282F30E0F901E659F74F39
:100710008081F901EA59F74F9081891B0895282FAC
:1007200030E0F901EE59FB4F8081F901E25AFB4FAD
:100730009081891B8F770895E82FF0E0DF01AE5993
:10074000BB4F8C918F5F87FD80E094E0899FE00D27
:10075000F11D1124E25AFD4F60838C930895CF92CE
:10076000DF92EF92FF920F931F93CF93DF93182F97
:10077000042FD0E0C62ED12CE12CF12CD01799F00B
:10078000C0E0C11741F01F9A379AC701B6010E9415
:10079000C221CF5FF6CF6CE370E080E090E00E9472
:1007A000C221DF5FEBCFDF91CF911F910F91FF90BF
:1007B000EF90DF90CF9008952091860930E0D90125
:1007C000A258B74F615088F04C9151E0540F5C93A0
:1007D000F90154E0459FE00DF11D1124EA57F74F50
:1007E0004081FC014193CF01EDCF0895CF93C82FF5
:1007F000682F809186090E949C03E0918609F0E0B1
:10080000EE57F74F90819C279083CF9108950F93D7
:100810001F93CF93DF931F92CDB7DEB78C01680F84
:10082000601741F0F80181918F0169830E94F603FE
:100830006981F6CF0F90DF91CF911F910F910895AD
:10084000CF93DF93D82FC62F84E20E94F6038DE466
:100850000E94F603DD2311F081E201C08EE30E94C5
:10086000F603E0918609F0E0EE57F74F10828C2FE7
:100870000E94F603E0918609F0E0E658F74F808188
:10088000DF91CF910C94F603E0918609F0E0EE57EA
:10089000F74F80810E94F603809186090C94340200
:1008A00060E080E00E9420040C9444041F93CF93E6
:1008B000DF93EC01162F80E00E942004612FCE010F
:1008C0000E940704DF91CF911F910C944404CF93B1
:1008D000DF93EC010E94E022682F80E00E94200458
:1008E000FE018491882331F0FE0184910E94F60379
:1008F0002196F6CFDF91CF910C9444040F931F9370
:10090000CF93DF93CDB7DEB766970FB6F894DEBF0F
:100910000FBECDBF853709F450C108F065C08D36D4
:1009200009F43FC138F5873609F416C1B8F48536A5
:1009300009F4D5C008F00CC1843609F07EC180EFFF
:10094000898383E08A831B8280E090E0A0E0B0E7A7
:100950008C839D83AE83BF8367E0F7C0893609F43B
:100960001CC108F407C18C3609F067C166E085EF49
:100970009BE060C1813709F423C148F48F3609F444
:1009800014C108F016C167E081E09CE053C18337D1
:1009900009F42AC108F018C18091E50B9091E60B8B
:1009A0009A83898380916A0B90916B0B9C838B83D4
:1009B0008AE397E09E838D8388EE93E098878F8308
:1009C0001A8619861C861B861D861E861F86188A17
:1009D0008091300B9091310B9A8B898B1B8A1C8AEA
:1009E0001D8A1E8A66E1B1C08E3C09F413C1F8F479
:1009F0008A3C09F452C080F4883709F4B1C0883CBD
:100A000009F442C0873709F018C168E080E00E940D
:100A100020040CE511E0DDC08C3C09F444C008F072
:100A2000EEC00E94500460E18FE19BE041C0843D34
:100A300009F49AC068F4803D09F4DAC0E0F1833D1E
:100A400009F0FBC00E94500462E080E49CE030C0EA
:100A5000803F09F493C070F48F3E09F0EEC00E940D
:100A6000500462E08DE19BE00E94DC0362E08BE1D8
:100A70009BE01EC08A3F09F4D7C08E3F09F0DDC05D
:100A800068E08DEE9BE0D6C060E183EC9BE00E94C5
:100A9000DC0382E38093BA0BD6C00E9450046EE15F
:100AA00086EF9AE005C00E94500467E084E19BE075
:100AB0000E94DC03C8C00E94500466E1CE0101968A
:100AC0000E94DC038B819C8190936B0B80936A0B5B
:100AD00089899A899093310B8093300BB4C08091AF
:100AE000480C9091490C9A8389838091E90B9091ED
:100AF000EA0B9C838B8387E090E09E838D8320911B
:100B0000EB0B23FD04C080E090E0DC0104C082E038
:100B100090E0A0E0B0E024FD846026FD886025FD23
:100B2000806127FD806230913C0C311180643091EE
:100B30003D0C3111806821FD81608F839887A987E2
:100B4000BA878091700B8B876BE0CE01019672C0E3
:100B500062E18AE09CE06EC060E184E392E06AC0FA
:100B600068E382E39BE066C00E94500468E382E38E
:100B70009BE09ECF60E184E89BE05CC064E080E0A5
:100B80000E94200462E08DE19BE00E94070462E085
:100B90008BE19BE00E94070454C060E183ED9BE081
:100BA00049C066E08BEF9BE045C067E084E19BE0D5
:100BB00041C06EE186EF9AE03DC089E991E006C050
:100BC00060E18FE19BE036C084E691E00E9467041B
:100BD0003AC0F80184910E94F6030F5F1F4FF1E0C5
:100BE00004361F07B1F72DC068E080E292E022C012
:100BF0008091EB0B81FD1BC00E94260718C08091DD
:100C0000EB0B81FD14C080E092E09093470C809341
:100C1000460C0DC08091EB0B81FD09C08091EC0B5F
:100C200082608093EC0B03C080E00E94AE080E94BB
:100C3000500409C00E94560406C060E081E00E9492
:100C400020040E94440466960FB6F894DEBF0FBEDF
:100C5000CDBFDF91CF911F910F9108954F925F9279
:100C60006F927F928F929F92AF92BF92CF92DF92BC
:100C7000EF92FF920F931F93CF93DF930E949F21D8
:100C800086E7882E88E0982E92E7A92E98E0B92E64
:100C900002E818E02EE6E22E28E0F22E3AE7C32E14
:100CA00038E0D32EC0E0D0E05C2EC09386098C2FB4
:100CB0000E948303FE01E258F74F3F0144244A9407
:100CC000480E882309F461C0852D0E948F038F345C
:100CD00008F06EC0852D0E946B03F4019081911184
:100CE00005C091E0843209F048C04BC0913029F42E
:100CF0008D3409F042C092E044C0923021F48C332C
:100D0000E1F593E03EC0933061F48134E0F5F50104
:100D10008083F8018083F7011082F301108294E050
:100D200030C0943041F4F6018083F8019081982717
:100D3000908395E026C0953021F5F7012081F501DB
:100D40003081F801231788F430813827308331E06F
:100D5000320FF7013083FE0134E0239FE00DF11DD7
:100D60001124EA57F74F80830CC09081981307C075
:100D7000F60180810E947E0402C090E002C090E0F3
:100D8000412CF4019083842D99CF2196FFEF8F1A87
:100D90009F0A2FEFA21AB20A0F5F1F4F3FEFE31A0D
:100DA000F30A8FEFC81AD80AC430D10509F07CCFF6
:100DB000DF91CF911F910F91FF90EF90DF90CF9037
:100DC000BF90AF909F908F907F906F905F904F906B
:100DD0000895FC0185E5615019F09191890FFBCFD1
:100DE000089540E150E060E070E080E79BE00E9401
:100DF0005F2560E180E79BE00E94E90690917F0B10
:100E0000891741F01092700B88E893E19093720B70
:100E10008093710B0895CF93C82F60E180E79BE02A
:100E20000E94E90680937F0B40E150E060E070E0B3
:100E300080E79BE00E946F25C13031F441E064E11E
:100E40008FE0CF910C94AF03CF910895CF93DF93B0
:100E500081E28093F60A2EE12093F70A97E19093BE
:100E6000F80A8093F90A2093FA0A9093FB0A9AE50C
:100E700090930B0B2AE020930C0B24E620930D0B90
:100E800024E42093FC0A2DE22093FD0A1092FE0A2E
:100E900020E42093FF0A29E12093000B38E13093EE
:100EA000010B3FE03093020B1092030B1092040BE6
:100EB00032E23093050B3EE03093060B35E330937E
:100EC000070B2093080B8093090B83E580930A0B93
:100ED00088E280930E0B1092110B1092120B10925D
:100EE000130B9093140B81E48093150B1092160B47
:100EF0001092170B1092180B82E38093190B10922B
:100F00001A0BEFE1FBE0119211926BE0EF32F60762
:100F1000D1F710921C0B10921B0B10921E0B10920B
:100F20001D0B10922F0BE2E3FBE0C5E4D2E0A8E337
:100F3000BBE04CEF53E020ED37E08CED95E05183C2
:100F40004083338322839583848369916C9337969E
:100F500017966BE0EA36F60791F7DF91CF910C9484
:100F6000CD082F923F924F925F926F927F928F9215
:100F70009F92AF92BF92CF92DF92EF92FF920F9328
:100F80001F93CF93DF93CDB7DEB72A970FB6F894B0
:100F9000DEBF0FBECDBF1092700B4AE750E060E19C
:100FA00070E086EF9AE00E945F256AE786EF9AE09C
:100FB0000E94E90690916F0B891749F043E064E6BF
:100FC00086E00E94AF030E94260780E0AEC0C0907A
:100FD000150BD12CE090140B00EB1BE0612C712C55
:100FE000F12C38EA832E34E0932EA12CB12C669C90
:100FF000C001679C900D900D11240F97C89E900121
:10100000C99E300DD89E300D1124C9018A509A4FC7
:10101000869DD001879DB00D969DB00D112497013E
:101020000E944726A50194010E941126F8012193F0
:1010300031938F01FFEF6F1A7F0A25E0621671046A
:10104000B1F60091190B84E6A82EA01A34E6039F8E
:101050001001112480911A0B482E512C612C712CF7
:1010600080906A0B90906B0BEAE3F7E0E819F909BE
:10107000FA87E987102F11952AE93BE03A83298303
:101080009EE6B92EB01AE82FF0E0F887EF8320E152
:10109000C22E27E2D22EE12CF12C111614F44A2D87
:1010A00001C0402F1102D00111242F8138850E94E8
:1010B00047266B837C838D839E83242F30E0D90168
:1010C0000E9438269B01AC016B817C818D819E81C1
:1010D0000E9411262C593F4F4F4F5F4F241935095D
:1010E00046095709812F992787FD9095829FB00166
:1010F000839F700D929F700D1124620D731D9B01D3
:10110000A985BA850E943826A70196010E94EF257D
:10111000C401820F931FE981FA8181939193FA832D
:10112000E983165F1B11B9CF81E02A960FB6F894B8
:10113000DEBF0FBECDBFDF91CF911F910F91FF900A
:10114000EF90DF90CF90BF90AF909F908F907F9067
:101150006F905F904F903F902F900895CF93C82F3E
:101160001092700B6AE786EF9AE00E94E90680937E
:101170006F0B4AE750E060E170E086EF9AE00E9472
:101180006F250E94B107C13031F441E064E18FE086
:10119000CF910C94AF03CF9108958EE794E0909394
:1011A0006B0B80936A0B88E290E09093310B8093F5
:1011B000300B8AE080936C0B88E790E090936E0B85
:1011C00080936D0B80E00C94AE084F925F926F920B
:1011D0007F928F929F92AF92BF92CF92DF92EF92C7
:1011E000FF92CF936B017C0149015A010E94EC23CD
:1011F0002B013C01B701A601F7FE07C04427552784
:10120000BA014C195D096E097F09D501C401B7FE09
:1012100007C088279927DC0188199909AA09BB0901
:10122000C1E0481759076A077B0744F0C0E0C501D1
:10123000B4010E94EC23A301920108C0C501B401CE
:101240000E94EC239B01AC01C301B2010E94512317
:101250002B013C019B01AC010E94F62421ED31E9F8
:1012600044E650E40E94EA229B01AC01C301B201B2
:101270000E94512323EC3DEC4FEF54E40E94F624EE
:101280000E94B9239B01CC2359F0B7FE12C0F7FE90
:1012900003C0285037400DC09B01285F384F09C05C
:1012A000F7FC03C024E833E002C02CE73CEF261B28
:1012B000370BC901CF91FF90EF90DF90CF90BF9097
:1012C000AF909F908F907F906F905F904F90089518
:1012D000CF92DF92EF92FF920F931F938B019C01AD
:1012E000359527951795079559EFC52EDD24DA9486
:1012F0005FE1E52E5FE5F52EC01AD10AE20AF30A96
:1013000027E336E344E35FE30E94F624A701960156
:101310000E94F624A70196010E94F6249B01AC01CD
:1013200066EF78E487ED9FE30E94E9229B01AC0120
:10133000C701B6010E94F6241F910F91FF90EF9014
:10134000DF90CF9008959B01AC01AA27429FB00186
:101350005302C00134039A0B700D811D9A1F520372
:101360009A0B700D811D9A1F112408954F925F9260
:101370006F927F92AF92BF92CF92DF92EF92FF92E5
:101380000F931F93CF93DF93EC018B01AA80BB8057
:10139000CE80DF80EA84FB84B501F80180819181F1
:1013A0000E94A3092B013C01B601F80182819381BF
:1013B0000E94A309640D751D861D971D48845984DC
:1013C0006A847B84461A570A680A790A48865986CD
:1013D0006A867B86B701F801808191810E94A3090A
:1013E0002B013C01B601F801848195810E94A3097B
:1013F000461A570A680A790A88819981AA81BB81AD
:10140000840D951DA61DB71D88839983AA83BB8370
:10141000B701F801828193810E94A3096B017C01CD
:10142000B501F801848195810E94A3096C0D7D1D91
:101430008E1D9F1D0C811D812E813F81060F171F60
:10144000281F391F0C831D832E833F83DF91CF918B
:101450001F910F91FF90EF90DF90CF90BF90AF90D2
:101460007F906F905F904F9008952F923F924F9290
:101470005F926F927F928F929F92AF92BF92CF9224
:10148000DF92EF92FF920F931F93CF93DF93CDB72D
:10149000DEB762970FB6F894DEBF0FBECDBF0E94D5
:1014A0009F216B017C018091B3099091B409B60131
:1014B000681B790B80E090E00E94EA2329E134E484
:1014C00042E959E30E94F6246B877C878D879E87CB
:1014D000D092B409C092B30967EA262E69E0362E8D
:1014E0009E012F5F3F4F59010AE01CE033E03F832C
:1014F000C12CD12C76014501D1014D905D906D90AC
:101500007C90D301C20154E0B695A7959795879535
:101510005A95D1F7F80191838083408D518D481BF6
:10152000590B662757FD6095762F440D551D661D96
:10153000771DF10141935193619371931F01BC0198
:101540000E94A309C60ED71EE81EF91ED8015296A6
:101550006D917C915397882777FD8095982F0E94F5
:10156000EC232B853C854D855E850E94F6240E94E8
:10157000B923F501619371935F01FF81F150FF83FE
:101580000E5F1F4FF111B8CFB40184E092E00E94CA
:10159000B609B4018BE999E00E94B609CD2CDE2C86
:1015A000EF2CFF24E7FCFA9427E6C21A23E0D20AC4
:1015B00004E012E02BE9E22E29E0F22E3AE0632E5D
:1015C0003CE0732E43E0542E812C912C540132E3E5
:1015D000C31631E0D306F8F4D3014D915C91F801C4
:1015E00082819381481B590B662757FD6095762FA2
:1015F00086E0440F551F661F771F8A95D1F78081BB
:101600009181A281B381840F951FA61FB71F80838C
:101610009183A283B383D80112966D917C91139725
:10162000F301808191810E94A309860E971EA81E56
:10163000B91ED3011C964D915C911D97F7018281D3
:101640009381481B590B662757FD6095762F762F9F
:10165000652F542F442780819181A281B381840F0B
:10166000951FA61FB71F81939193A193B1937F01FB
:101670005A940C5F1F4FF2E06F0E711C5110A7CFF0
:1016800080910E0290910F022091EC0B813D9140D0
:1016900024F021602093EC0B04C0822F8E7F809376
:1016A000EC0B8091060290910702BC010E94A309F5
:1016B0006B017C0180910E0290910F02BC010E948F
:1016C000A309C60ED71EE81EF91E80910A0290914A
:1016D0000B02BC010E94A3096C0D7D1D8E1D9F1D78
:1016E0000E94EC230E9468092B013C010091060234
:1016F0001091070220910E0230910F02442737FD0E
:101700004095542FB801882777FD8095982F0E9427
:10171000E5089093F60B8093F50BC701B6010E9484
:10172000EC239B01AC012F87388B498B5A8B0E948D
:1017300068092F85388949895A890E94F6240E94B0
:10174000B9239B01AC0180910A0290910B02BC016C
:10175000882777FD8095982F0E94E5089093F80BD5
:101760008093F70BA091A109B091A209A70196015E
:101770000E9459266B017C01B80180919D099091CE
:101780009E090E94A3096F83788789879A87609151
:101790000E0270910F028091A5099091A6090E94F6
:1017A000A3099B01AC018F819885A985BA85280F73
:1017B000391F4A1F5B1FA0910A02B0910B020E94C1
:1017C0005926A7019601261B370B480B590BCA0156
:1017D000B9010E94EC23A30192010E94F6240E9409
:1017E000B9239B01AC0160910602709107028091C0
:1017F000A5099091A6092F87388B498B5A8B0E9497
:10180000A3096B017C0160910E0270910F0280911F
:101810009D0990919E090E94A3096F83788789870B
:101820009A87C61AD70AE80AF90A2F85388949899A
:101830005A89C701B6010E94E5082091300B30910A
:10184000310B280F391FC9016AE070E00E94DB25C7
:101850007093FA0B6093F90B64E670E080910E02CE
:1018600090910F020E94A30920E032E040E050E096
:101870000E9411262093440284E690E0821B910985
:1018800027FD939597FD12C09C018536910514F0B4
:1018900024E630E048E2429FC001439F900D1124AE
:1018A000A3E095958795AA95E1F702C080E090E0C6
:1018B0009093E80B8093E70BC501B4010E94EC23E1
:1018C000A30192010E94F6240E94B9232091EB0B00
:1018D00021FD12C02091990930919A09A901F3E0E4
:1018E00055954795FA95E1F7241B350B260F371FC1
:1018F00030939A09209399092091990930919A0976
:10190000E3E035952795EA95E1F7621B730B709339
:10191000C2096093C10962960FB6F894DEBF0FBE8C
:10192000CDBFDF91CF911F910F91FF90EF90DF908E
:10193000CF90BF90AF909F908F907F906F905F906F
:101940004F903F902F900895CF92DF92EF92FF92A9
:101950000F931F93CF93DF930E941F180E94350AA5
:101960000E94E31780911C0C90911D0C9093BC0970
:101970008093BB0980911E0C90911F0C9093BE091F
:101980008093BD098091200C9091210C9093C00907
:101990008093BF090E949F21EB010E9429190E9498
:1019A0009F216C1B7D0B6A387240CCF30E94E317B9
:1019B000ECE1EE2EECE0FE2ECBEBD9E0E5EBF9E02E
:1019C00000E11CE040E0A3E0CA2ED12CD7012D910C
:1019D0003D917D0188819981280F391F2993399381
:1019E00080819181820F931FB6010E94DB25D8016F
:1019F0006D937D938D0135952795219331934F5F9D
:101A0000433021F7DF91CF911F910F91FF90EF901D
:101A1000DF90CF9008958F929F92AF92BF92CF9216
:101A2000DF92EF92FF920F931F93CF93DF930E9469
:101A30009F212091970930919809EB01C21BD30B8C
:101A4000C83A21E6D20708F4DDC170939809609383
:101A500097090091440C1091450C01151105B1F145
:101A60006091DE0A7091DF0A8091E00A9091E10AAC
:101A70000E94EC230E94B62460939309709394090A
:101A800080939509909396096091E20A7091E30A18
:101A9000882777FD8095982F6D5475498F4F9F4FFC
:101AA0000E94EC232EE83BE24AE652E40E94F62430
:101AB00060938F0970939009809391099093920994
:101AC000015011091093450C0093440C6091DE0AFB
:101AD0007091DF0A8091E00A9091E10A0E94EC2364
:101AE0000E94B6244B015C012091FB0B3091FC0B52
:101AF0004091FD0B5091FE0BA6E0B0E00E944E26F7
:101B00006B017C01A5019401609193097091940986
:101B100080919509909196090E94E92220918F0960
:101B20003091900940919109509192090E94F624B8
:101B30000E94B9236C0D7D1D8E1D9F1D23E0959580
:101B40008795779567952A95D1F76093FB0B7093EE
:101B5000FC0B8093FD0B9093FE0B0091320C1091C7
:101B6000330C2091340C3091350C061B170B280BCD
:101B7000390B043D4EEF14074FEF240734075CF098
:101B80000D32E1E01E07210531053CF00CE211E0C9
:101B900020E030E002C004ED1EEF9801275F3F4FC8
:101BA0002331310560F0101611061CF40A5011099A
:101BB00008C00115110529F0065F1F4F02C000E0A3
:101BC00010E02091FF0A209FA001219F500D1124B9
:101BD000440F452F441F550B4739510514F046E972
:101BE00050E0E091000BE09F9001E19F300D112447
:101BF00006E0359527950A95E1F7E0912E0CF091D6
:101C00002F0C2E0F3F1F2133E5E73E0714F020E392
:101C100035E7203DEAE83E0714F420ED3AE830933A
:101C20002F0C20932E0C4A36EFEF5E0714F44AE691
:101C30005FEF232F330F330B2595240F351F309380
:101C4000310C2093300C2091C1093091C209A901B7
:101C5000415F5F4F4F31510528F41092C209109235
:101C6000C1090CC0121613061CF42051310902C020
:101C7000205F3F4F3093C2092093C10920918B0907
:101C800030918C09CB01821B930B68E270E00E94BB
:101C9000A3090091FB0B1091FC0B2091FD0B3091DF
:101CA000FE0B00938B0910938C0920938D093093C0
:101CB0008E096D3221E0720714F06CE271E08B0145
:101CC000643D4EEF740714F404ED1EEFC80109964D
:101CD000439760F0101611061CF40A50110908C051
:101CE0000115110529F0065F1F4F02C000E010E04A
:101CF0006091C1097091C209882777FD8095982F5E
:101D00000E94EC2328EA39E840E056E30E94F624DA
:101D10006B017C01BE0180E090E00E94EA239B0100
:101D2000AC01C701B6010E94F624209187093091C9
:101D300088094091890950918A090E94EA2226EF78
:101D400038E24CE75FE30E94F6246B017C01B801A6
:101D5000882777FD8095982F0E94EC232FE832EC9E
:101D600045E75CE30E94F6249B01AC01C701B60184
:101D70000E94EA22609387097093880980938909F9
:101D800090938A090E94B923AB014C5F5F4F4930A1
:101D9000510528F41092000C1092FF0B0CC016167F
:101DA00017061CF46550710902C06B5F7F4F70937A
:101DB000000C6093FF0B4091010B2091FF0B3091C1
:101DC000000C429FC001439F900D1124B4E09595F3
:101DD0008795BA95E1F78739910514F086E990E087
:101DE0008A36EFEF9E0714F48AE69FEF2091300CBD
:101DF0003091310C281B390B3093310C2093300C6F
:101E000081E001C080E0DF91CF911F910F91FF90A1
:101E1000EF90DF90CF90BF90AF909F908F900895FC
:101E200010920701EDE4F2E080910801DF01919149
:101E3000892B8093080180916D009C91892B809360
:101E40006D0082E0E535F80779F784E0809368005B
:101E500008951F920F920FB60F9211240BB60F9296
:101E60002F933F934F935F936F937F938F939F93A2
:101E7000AF93BF93CF93DF93EF93FF93C09106018E
:101E8000D091040ADC270E949F217894C093040A11
:101E9000D2FF18C0C2FD12C02091F4093091F5099B
:101EA000AB01421B530B9A014558534043315540F7
:101EB00048F4309315022093140204C07093F5097E
:101EC0006093F409D4FF18C0C4FD12C02091F60934
:101ED0003091F709AB01421B530B9A01455853400F
:101EE0004331554048F4309319022093180204C03E
:101EF0007093F7096093F609D5FF18C0C5FD12C0AD
:101F00002091F8093091F909AB01421B530B9A015A
:101F1000455853404331554048F430931B022093B9
:101F20001A0204C07093F9096093F809D6FF18C02B
:101F3000C6FD12C02091FA093091FB09AB01421B8A
:101F4000530B9A01455853404331554048F4309360
:101F50001D0220931C0204C07093FB096093FA09D0
:101F6000D7FF18C0C7FD12C02091FC093091FD09B0
:101F7000AB01421B530B9A01455853404331554026
:101F800048F430931F0220931E0204C07093FD0991
:101F90006093FC09D0FF18C0C0FD12C02091FE095B
:101FA0003091FF09AB01421B530B9A014558534036
:101FB0004331554048F4309311022093100204C07D
:101FC0007093FF096093FE09D1FF18C0C1FD12C0D4
:101FD0002091000A3091010AAB01421B530B9A0178
:101FE000455853404331554048F4309313022093F1
:101FF000120204C07093010A6093000AD3FF17C055
:10200000C3FD11C02091020A3091030A621B730BB9
:10201000CB01855893408331954048F47093170263
:102020006093160204C07093030A6093020AFF9142
:10203000EF91DF91CF91BF91AF919F918F917F9160
:102040006F915F914F913F912F910F900BBE0F9029
:102050000FBE0F901F9018952FB7F894E82FF0E05F
:10206000EB5AFD4FE081F0E0EE0FFF1FE05FFD4F08
:10207000808191812FBF0895CF92DF92EF92FF92DE
:102080000F931F93CF93DF938091F3098F5F83307A
:1020900019F08093F30902C01092F30963ECE62E65
:1020A00069E0F62EC3EDDBE073ECC72E7BE0D72EA4
:1020B00000E010E0802F0E942C109C012E5F3F4F0B
:1020C000F70140815181240F351F42815381240F34
:1020D000351F44815581240F351F36952795369538
:1020E000279548815981435051092417350728F411
:1020F000A9014E5F5F4F59834883488159814D5FE5
:102100005F4F4217530720F4225031093983288347
:102110002091F309F801EE0FFF1FE00FF11FE20F0E
:10212000F11DEE0FFF1FED53F64F918380838091D9
:10213000BA0B882361F081508093BA0BF60180813D
:1021400091818538F3E09F0714F0998388830F5FAE
:102150001F4F26E0E20EF11C229682E0C80ED11C31
:102160000830110509F0A6CFDF91CF911F910F9193
:10217000FF90EF90DF90CF9008958091340290917E
:10218000350290932D0180932C018091360290911D
:10219000370290932B0180932A0108958091840B3C
:1021A0009091850B23E0880F991F2A95E1F7909372
:1021B0009D0080939C008091860B9091870B33E06B
:1021C000880F991F3A95E1F79093990080939800B2
:1021D0008091880B9091890B43E0880F991F4A9555
:1021E000E1F79093A9008093A80080918A0B9091C9
:1021F0008B0B53E0880F991F5A95E1F790939B0042
:1022000080939A0008959093850B8093840B90930C
:10221000870B8093860B9093890B8093880B909308
:102220008B0B80938A0B0C94CE10CF93DF93E3E754
:10223000F0E080818D7F8083C0E2D1E08881826080
:10224000888388818E7F8883E1E2F1E08081827FCC
:10225000808380818261808380E29EE49093270165
:102260008093260161E08CE20E944C228881886084
:10227000888361E08DE20E944C228881806288839D
:10228000DF91CF910895CF93DF93C0E2D2E061E078
:1022900089910E944C2282E0C432D807C1F7809114
:1022A0009000826080939000809190008E7F809358
:1022B00090008091910080618093910080919100C5
:1022C0008D7F8093910080919600909197008F6F01
:1022D0009F63909397008093960080919000886010
:1022E000809390008091900080688093900080910E
:1022F000A00082608093A0008091A0008E7F8093D8
:10230000A0008091A10080618093A1008091A10034
:102310008D7F8093A1008091A6009091A7008F6F80
:102320009F639093A7008093A6008091A00080688F
:102330008093A0008091900080628093900088EE4E
:1023400093E00E9403116CE271E080E090E00E9453
:10235000C221DF91CF910C94151197E0899FF00174
:102360001124EA5CF44F208131812830310544F496
:10237000F901EE0FFF1FED52F44F80819181089516
:10238000C90108954F925F928F929F92AF92BF9230
:10239000CF92DF92EF92FF920F931F93CF93DF9331
:1023A000A091C10BB091C20BE091940BF091950BF1
:1023B000AD014E1B5F0B2091960B3091970B8091D6
:1023C000980B9091990BBA01620F731F681B790BE0
:1023D0007093850B6093840B421B530B480F591F5E
:1023E0005093870B4093860BBD016E0F7F1FAB018F
:1023F000420F531F480F591F5093890B4093880B6E
:10240000AB01421B530B9A01281B390B30938B0BEA
:1024100020938A0B80E00E94AD118C5D95406C0189
:1024200081E00E94AD11EC01CC5DD54080913D0C66
:10243000882339F1A091380B2091F70B3091F80BDC
:10244000BB27A7FDB0950E943026A2E38A2E912CCF
:10245000A12CB12CA50194010E941126C20ED31EFD
:10246000A0913F0B2091F50B3091F60BBB27A7FDF8
:10247000B0950E943026A50194010E941126C20F3A
:10248000D31FC60184529A4F8C1B9D0B909335022B
:10249000809334028CED95E08C199D098C1B9D0B6B
:1024A0009093370280933602C2E3DBE0F4E38F2E91
:1024B000F2E09F2EA880B980CC24B7FCC094DC2C1D
:1024C000F40140805180B201882777FD8095982FD4
:1024D0002A813B818901222717FD2095322F3F93C6
:1024E0002F931F930F9310EDE12E17E0F12E00E0D4
:1024F00010E02CEF33E040E050E00E94862228817B
:1025000039810F900F900F900F906217730734F07E
:102510002A813B81621773070CF49B01F40121931C
:1025200031934F012796FBE0C034DF0719F6209165
:10253000840B3091850B8091860B9091870B8217CD
:1025400093070CF4C9012091880B3091890B8217F5
:1025500093070CF4C90120918A0B30918B0B8217E1
:1025600093070CF4C90140916A0B50916B0BA09139
:10257000D90BB091DA0B2091EB0B122F1074D12EE6
:10258000022F0270E4E8FBE06AE377E0681B790B56
:10259000C8EED3E08B3327E0920734F020813181FD
:1025A000260F371F3183208320813181241735077F
:1025B0003CF02B3317E0310724F02AE337E001C069
:1025C0009A0131832083AC3424E0B20724F4D11083
:1025D00002C051834083011102C0D183C08332966F
:1025E0003BE0EC38F307B1F6DF91CF911F910F91EB
:1025F000FF90EF90DF90CF90BF90AF909F908F9023
:102600005F904F900895589859981092B9008CE0B7
:102610008093B80084E08093BC001092EA0B109283
:10262000E90B08958093BC008FEF9091BC0097FD5B
:102630000EC08150D1F71092BC008091E90B9091AF
:10264000EA0B01969093EA0B8093E90B08950895A5
:10265000CF93C82F84EA0E941213C093BB0084E872
:10266000CF910C9412138093BB0084E80C94121346
:1026700084EC0E9412138091BB00089584E80E94AC
:1026800012138091BB0094E99093BC000895CF92FF
:10269000DF92EF92FF920F931F93CF93DF931F92DE
:1026A000CDB7DEB7182F6A01E22E880F69830E942A
:1026B00028136981862F0E943313812F880F816030
:1026C0000E9428138601FE2CFA9431F00E943813E0
:1026D000F80181938F01F8CFEA9486010E0D111D48
:1026E0000E943E13F80180830F90DF91CF911F91DC
:1026F0000F91FF90EF90DF90CF90089526E041EB8F
:102700005AE00C94471363E08EE10E947E1380919F
:10271000B10A90E0982F88272091B20A822B9093DB
:10272000170C8093160C8091B50A90E0982F88279B
:102730002091B60A822B9093190C8093180C8091EB
:10274000B30A90E0982F88272091B40A822B9195A4
:102750008195910990931B0C80931A0C0895CF9347
:10276000DF931F921F92CDB7DEB7880F4A8369832C
:102770000E9428136981862F0E9433134A81842F77
:102780000E94331384E98093BC000F900F90DF9177
:10279000CF9108951F93CF93DF93482F60E08EE190
:1027A0000E94AF131AE041E062E08EE10E94AF1395
:1027B00064E670E080E090E00E94C2210E948313F2
:1027C000E6E1FCE0CCE8DAE02191319137FF03C08B
:1027D000319521953109A901662757FD6095762F1E
:1027E00088819981AA81BB81840F951FA61FB71F7D
:1027F00089939993A993B9932130304144F48CE0A3
:10280000EC31F80709F7115071F681E001C080E062
:10281000DF91CF911F910895CF92DF92EF92FF92B7
:10282000CF93DF932091420C3091430C2115310559
:10283000B9F1CCE1DCE0E0E8FAE048E25CE0211547
:1028400082E0380721F4108211821282138289916A
:102850009991AA2797FDA095BA2FC080D180E280D8
:10286000F3808C0D9D1DAE1DBF1D81939193A1938F
:10287000B1936C017D0169E0F594E794D794C79416
:102880006A95D1F7DA01CD92DD92AD01BCE0C2329A
:10289000DB07A9F6215031093093430C2093420CF9
:1028A000E8E2FCE0CCE1DCE0AAE7BAE081919191BA
:1028B00028813981281B390B4D915C911197CA01F0
:1028C000805293402817390734F0805C994F2817BD
:1028D00039070CF4C901899399938D939D938CE0EA
:1028E000EE32F80719F7DF91CF91FF90EF90DF906C
:1028F000CF900895CF92DF92EF92FF92CF93DF9324
:102900002091460C3091470C2115310509F44DC03A
:10291000215031093093470C2093460CC2E2DCE091
:10292000EEE6FAE041E75BE02F3F81E0380721F473
:10293000108211821282138289919991AA2797FDA0
:10294000A095BA2FC080D180E280F3808C0D9D1DB0
:10295000AE1DBF1D81939193A193B1936C017D0135
:1029600079E0F594E794D794C7947A95D1F7DA0192
:10297000CD92DD92AD01BCE0C832DB07A9F6232B76
:10298000A1F48091750B9091760B92509093760BF9
:102990008093750B10921C0B10921B0B10921E0B48
:1029A00010921D0B81E00E940B078091220C9091E8
:1029B000230C2091710B3091720B821B930B90931F
:1029C000230C8093220C8091240C9091250C209153
:1029D000730B3091740B821B930B9093250C809397
:1029E000240C8091260C9091270C2091750B30912E
:1029F000760B821B930B9093270C8093260CDF9110
:102A0000CF91FF90EF90DF90CF9008954F925F921B
:102A10006F927F928F929F92AF92BF92CF92DF92EE
:102A2000EF92FF920F931F93CF93DF931091AE0A13
:102A3000123009F0E7C01092AE0AC090A20AD090FE
:102A4000A30AE12CF12CFE2CED2CDC2CCC24609183
:102A5000A60A7091A70A8091A80A9091A90A6C19F8
:102A60007D098E099F090E94EC232B013C01609196
:102A70009C0A70919D0ACB01A0E0B0E07727662701
:102A80000E94EA236B017C016091A00A7091A10A67
:102A900080E090E00E94EA239B01AC01C301B201F7
:102AA0000E94F62420E030E040E05CE30E94F6243F
:102AB0009B01AC01C701B6010E94EA226B017C01B7
:102AC00060919A0A70919B0A80E090E0DFE0660FC7
:102AD000771F881F991FDA95D1F70E94EA234B01CF
:102AE0005C0160919E0A70919F0A80E090E00E94D4
:102AF000EA239B01AC01C301B2010E94F62420E04D
:102B000030E040E85BE30E94F6249B01AC01C50184
:102B1000B4010E94EA224B015C016091A40A709109
:102B2000A50A80E090E00E94EA239B01AC01C3016A
:102B3000B2010E94F62420E030E040E054E30E941D
:102B4000F6240E94B9239B012053384F3093E30AA7
:102B50002093E20A97FF2DC09B01AC010E94CB2578
:102B60009B01AC01A5E0B0E00E944E262B013C0188
:102B700095958795779567950E94EC239B01AC010D
:102B8000C701B6010E94E9226B017C01C301B201B9
:102B9000F2E09595879577956795FA95D1F70E941C
:102BA000EC239B01AC01C501B4010E94E9224B0159
:102BB0005C016091AA0A7091AB0A8091AC0A909175
:102BC000AD0A0E94EA23A50194010E94F62420E0A8
:102BD00030E040E055E30E94F624A70196010E94F0
:102BE000E92220E030E040E058E30E94F6240E9411
:102BF000B9236093E40A7093E50A8093E60A909300
:102C0000E70A7AC080914C0C90914D0C2091AF0A4C
:102C10003091B00AAC01421B530B57FD6FC0805F6F
:102C2000984D9093B00A8093AF0A111141C0E09182
:102C30006D0A21E02E0F253109F420E04091E40ACD
:102C40005091E50A6091E60A7091E70A84E0E89FF6
:102C5000F0011124E75EF54F408351836283738353
:102C60008091DE0A9091DF0AA091E00AB091E10A1A
:102C7000840F951FA61FB71F34E0239FF001112476
:102C8000E75EF54F4081518162817381841B950B12
:102C9000A60BB70B8093DE0A9093DF0AA093E00A9D
:102CA000B093E10A20936D0A08E4C6EADAE003C0B3
:102CB00008E5CAEADAE01F5F1093AE0A8EEE0E94C2
:102CC000281380E00E9433138FEE0E9428130E9485
:102CD0003813182F0E943813F82E0E943E13888351
:102CE000F9821A831B828EEE0E942813802F0E9485
:102CF000331384E98093BC0081E001C080E0DF9160
:102D0000CF911F910F91FF90EF90DF90CF90BF90E8
:102D1000AF909F908F907F906F905F904F900895AD
:102D20004F925F926F927F928F929F92AF92BF92DB
:102D3000CF92DF92EF92FF920F931F93CF93DF9387
:102D400000D01F92CDB7DEB7C0904C0CD0904D0C88
:102D5000E0904E0CF0904F0C8091150A9091160A5D
:102D6000A091170AB091180AC816D906EA06FB0600
:102D700008F413C180EAC80E86E8D81E81E0E81E78
:102D8000F11CC092150AD092160AE092170AF0922E
:102D9000180A69E488E60E947E138091B10A90E0E7
:102DA000982F88272091B20A822B9093170C80933A
:102DB000160C8091B50A90E0982F88272091B60ACA
:102DC000822B9093190C8093180C8091B30A90E099
:102DD000982F88272091B40A822B9195819591098B
:102DE00090931B0C80931A0C9090EC0BA92DA27061
:102DF0009A2E58E2A52E52E0B52E07E71BE066E1B9
:102E0000662E6CE0762EF501219131914191519120
:102E10005F01D3016D917C91882777FD8095982F74
:102E200029833A834B835C830E94EC2329813A8176
:102E30004B815C810E94F6240E94B923F3017183C7
:102E40006083911007C0D8012D913C91621B730BD8
:102E500071836083B2E06B0E711C0E5F1F4FECE15B
:102E60006E16ECE07E0679F6992009F494C0809104
:102E7000110A9091120AA091130AB091140A892B99
:102E80008A2B8B2B41F4C092110AD092120AE09245
:102E9000130AF092140A8091110A9091120AA091DB
:102EA000130AB091140AC81AD90AEA0AFB0AF0E810
:102EB000CF16F3ECDF06F9ECEF06F1E0FF0608F0C1
:102EC0005AC01F9A379A4090110A5090120A609087
:102ED000130A7090140AC090150AD090160AE09058
:102EE000170AF090180AB090E80A0BE0802E0AE06A
:102EF000902EE5E0FAE046E15CE067E77BE0A12C9C
:102F00004C145D046E047F0441F4DA012D913C9170
:102F1000D4012D933C9331832083DA012D913C9190
:102F2000D4010D911C9111972017310724F42D9392
:102F30003C93BB24B394008111810217130724F43E
:102F400031832083BB24B394D4012D913D914D0155
:102F500001911191200F311F35952795DB012D939C
:102F60003D93BD01A3944E5F5F4FB3E0AB12C8CF5A
:102F7000B092E80A10C08091EC0B8D7F8093EC0B2F
:102F80001092110A1092120A1092130A1092140A47
:102F900081E00E940B0781E001C080E00F900F905C
:102FA0000F900F90DF91CF911F910F91FF90EF90B5
:102FB000DF90CF90BF90AF909F908F907F906F9059
:102FC0005F904F90089563E488E60E947E1380919D
:102FD000B30A90E0982F88272091B40A822B959508
:102FE00087959595879590931D0C80931C0C8091E7
:102FF000B10A90E0982F88272091B20A822B9195F0
:1030000081959109959587959595879590931F0C36
:1030100080931E0C8091B50A90E0982F882720910C
:10302000B60A822B919581959109959587959595ED
:1030300087959093210C8093200C0C940C146BE3D7
:1030400088E60E947E138091B10A90E0982F88272D
:103050002091B20A822B91958195910943E0959533
:1030600087954A95E1F79093230C8093220C8091E9
:10307000B30A90E0982F88272091B40A822B91956B
:103080008195910963E0959587956A95E1F790930D
:10309000250C8093240C8091B50A90E0982F882706
:1030A0002091B60A822BE3E095958795EA95E1F7A2
:1030B0009093270C8093260C0C947A140F931F93F3
:1030C000CF93DF930E94031340E86BE688E60E94EB
:1030D000AF1362E370E080E090E00E94C22143E021
:1030E0006BE688E60E94AF1340E06AE188E60E9442
:1030F000AF1348E16BE188E60E94AF1342E067E35B
:1031000088E60E94AF1340E06EE187E70E94AF13AC
:1031100064E670E080E090E00E94C221CAE9DAE053
:1031200012EA8EEE0E942813812F0E9433138FEE35
:103130000E9428130E943813082F0E943E13888390
:10314000098322961E5F1E3A61F740E461E08EE13A
:103150000E94AF1341E062E08EE10E94AF1364E68B
:1031600070E080E090E00E94C2210E94831381E120
:103170000E94CA13C82F82E10E94CA1381113CC069
:1031800040E760E08EE10E94AF1340E261E08EE133
:103190000E94AF1340E062E08EE10E94AF1364E64C
:1031A00070E080E090E00E94C22140E16CE188E69E
:1031B0000E94AF1340E26AE688E60E94AF1340E047
:1031C00067E388E60E94AF134DE064E288E60E9460
:1031D000AF134EE965E288E60E94AF1343E066E272
:1031E00088E60E94AF1346E867E288E6DF91CF9158
:1031F0001F910F910C94AF13CC2311F2CCE8DAE0BD
:1032000008E212E069917991899199910E94EC23E9
:103210009B01AC0160E070EA84E996E40E945123CE
:10322000F80161937193819391938F01FAE0C8390A
:10323000DF0741F7A5CFCF93C5E00E945E188091CC
:10324000E90B9091EA0B892B11F0C150B1F7CF91A6
:1032500008952F923F924F925F926F927F928F923A
:103260009F92AF92BF92CF92DF92EF92FF920F9315
:103270001F93CF93DF93CDB7DEB728970FB6F8949F
:10328000DEBF0FBECDBF2091D90B3091DA0B2D3DA3
:1032900005E03007C4F06091180B203D17E03107BE
:1032A00074F4A9014C5D5540649FC001659F900D69
:1032B0001124892F8695E0E89E2E981A06C070E8A2
:1032C000972E961A02C050E8952E4090160B512C5E
:1032D00043ED5BE05A834983EBEBFBE018EF212ED3
:1032E0001AE0312E80E090E00CED602E05E0702EAB
:1032F00040E8842EA981BA816D917D91BA83A9831A
:103300006D3DB5E07B072CF0603D07E070075CF099
:1033100007C0A301461B570B443F11E0510734F08F
:1033200044EF51E003C0AB014C5D5540823009F4DD
:1033300069C05A01AA0CAB2CAA1CBB08B194750138
:10334000EE0CFF1CD701A055B44FCD90DC90750159
:10335000EE0CFF1C87010E54144FD801ED90FC9029
:10336000EC18FD08D501B695BA2FAA27B795A795F1
:103370005A01AA1ABB0AEA9CD001EB9CB00DFA9C38
:10338000B00D1124AA0FAB2FAA1FBB0BB195AC0D2A
:10339000BD1DB183A083449DD001459DB00D549DBA
:1033A000B00D11244B2F4695B82DB41BB99DA0012B
:1033B0001124440F452F441F550B5195D1011297ED
:1033C000FC90F49E6001F59ED00C1124CC0CCD2C09
:1033D000CC1CDD08D1948C010E57144FD801CC922F
:1033E000D101FC90F49E8001F59E100D1124000F78
:1033F000012F001F110B1195AC014058544FDA01F9
:103400000C9302C0518340836C3D75403CF4408175
:1034100051815195419551095183408301963296CE
:1034200003E0200E311C8330910509F063CF2C346A
:1034300014E031073CF0213D47E034072CF020ED4B
:1034400037E002C02CE434E02C543440AFEFB9E054
:103450000E94382624E833E040E050E00E94EF2547
:10346000832F9927FC01EE0FFF1FE656F44FA08132
:10347000B181FC01EE0FFF1FE456F44F60817181B2
:103480006A1B7B0B982F8827281B390B629FC00172
:10349000639F900D729F900D1124892F99278A0F99
:1034A0009B1F9093C20B8093C10B1091EB0B17FFE6
:1034B00076C06091F90B7091FA0B80913E0C90915F
:1034C0003F0C681B790B882777FD8095982F0E9409
:1034D000EC2329E33AEF4EE85CE30E94F6246B010B
:1034E0007C010E944E2369837A838B839C83C7016E
:1034F000B6010E9459252B013C016091BD0B7091D2
:10350000BE0B882777FD8095982F0E94EC234B01F6
:103510005C016091BB0B7091BC0B882777FD809597
:10352000982F0E94EC236B017C0129813A814B8109
:103530005C810E94F6246D837E838F839887A3012C
:103540009201C501B4010E94F6249B01AC016D817A
:103550007E818F8198850E94E9220E94B923709311
:10356000BC0B6093BB0B29813A814B815C81C50107
:10357000B4010E94F6244B015C01A3019201C70132
:10358000B6010E94F6249B01AC01C501B4010E9462
:10359000EA220E94B9237093BE0B6093BD0B809109
:1035A000DD0A8F5F8093DD0A8091460C9091470C75
:1035B000892B31F48091420C9091430C892B19F0A6
:1035C0001F9A379A0AC012FF02C02F98479880911D
:1035D000EB0B81FF02C02F9A479A40914C0C5091FF
:1035E0004D0C60914E0C70914F0C8091D90A9091C6
:1035F000DA0AA091DB0AB091DC0A84179507A607C6
:10360000B70718F59091EC0B8091EB0B90FD1AC069
:103610008B7F8093EB0B1F9A379A80914C0C909183
:103620004D0CA0914E0CB0914F0C80569947AE4F67
:10363000BF4F8093D90A9093DA0AA093DB0AB09324
:10364000DC0A03C084608093EB0B28960FB6F894D5
:10365000DEBF0FBECDBFDF91CF911F910F91FF90C5
:10366000EF90DF90CF90BF90AF909F908F907F9022
:103670006F905F904F903F902F900C942E0640E0FB
:1036800052EC61E070E080E00E94540240E052ECB5
:1036900061E070E081E00E94540240E052EC61E0A1
:1036A00070E082E00E94540240E052EC61E070E081
:1036B00083E00E94540261E08DE00E944C2261E0B0
:1036C0008EE10E944C2261E080E20E944C2261E087
:1036D0008FE10E944C220E9443110E94F106109239
:1036E000700B0E94B1078091700B882321F08150EC
:1036F0008093700BF6CF0E94F1060E94B1074091B3
:10370000700B4F5F68E282E00E94AF030E94100FCF
:103710000E941B190E949F2170934B0C60934A0CCE
:1037200080E092E09093430C8093420C88EC90E010
:103730009093450C8093440C8091EC0B81608093B6
:10374000EC0B08958091420C9091430C2091EB0B6F
:10375000892B91F421FD1AC022602093EB0B8091FC
:10376000F90B9091FA0B90933F0C80933E0C909341
:10377000410C8093400C089521FD08C041E06FEF9B
:1037800082E00E94AF0381E08093F00A0895809167
:10379000EB0B81FF03C08D7F8093EB0B08952F927D
:1037A0003F924F925F926F927F928F929F92AF92D1
:1037B000BF92CF92DF92EF92FF920F931F93CF931E
:1037C000DF93CDB7DEB76A970FB6F894DEBF0FBEB2
:1037D000CDBF80914C0C90914D0C2091D70A309127
:1037E000D80A8C01021B130B101611060CF01DC118
:1037F000805E914B9093D80A8093D70A0E943C1028
:10380000E3EDFBE040E0842F90E09595879595955A
:103810008795482F219131912D3414E0310724F000
:1038200040682C3637400CF440646BE0EB3DF60703
:1038300051F78091D60A481308C08091D50A8A3F73
:1038400030F48F5F8093D50A02C01092D50A40935E
:10385000D60A8091D90B9091DA0B8D34E4E09E0763
:1038600004F51092D20A1092D10A1092D40A109242
:10387000D30A1092CD0A1092CE0A1092CF0A10925B
:10388000D00A1092CA0A1092C90A1092CC0A109259
:10389000CB0A8C3F93401CF40E94C71B02C00E94BD
:1038A000A21B8091D50A843109F05CC08091EB0B9A
:1038B00081FD58C08091D60A873569F480E092E096
:1038C0009093430C8093420C8AE090E09093450CD7
:1038D0008093440C19C08B3639F40E949F21709359
:1038E0004B0C60934A0C10C0873939F480E092E0A9
:1038F0009093470C8093460C07C0873A29F4809137
:10390000EC0B82608093EC0B8091D60A8B3B31F4F8
:1039100080911D0B90911E0B029607C0873B51F4BE
:1039200080911D0B90911E0B029790931E0B80931C
:103930001D0B13C08E3B31F480911B0B90911C0B1F
:10394000029607C08D3B71F480911B0B90911C0B6C
:10395000029790931C0B80931B0B81E00E94AE0892
:103960001092D50AABEDBBE080E090E020E030E0C3
:103970004D915D9161E070E0453A06E0500714F426
:1039800060E070E0FC0132968B0102C0000F111F55
:10399000EA95E2F7F80161E070E0443115E0510783
:1039A00014F060E070E0082E02C0660F771F0A94E2
:1039B000E2F76E2B7F2B45515540E1E0F0E04F38A8
:1039C000514010F0E0E0F0E0AC014F5F5F4F8F013D
:1039D00002C0000F111F4A95E2F7A801462B572B92
:1039E000242B352B03968C30910511F6EFE1FBE08B
:1039F000A6E3BCE0819191918223932341E0892B3E
:103A000009F440E04D931BE0EF32F10799F7809104
:103A1000370C2091EB0B81113DC48091E30B909109
:103A2000E40BC3970CF036C4A6C38091C60A82305B
:103A3000D9F028F4882341F0813069F020C0833028
:103A4000E1F08430D1F01BC081E08093C60A0E946F
:103A50009016811114C08091C60A8F5F8093C60AA8
:103A60000E94061581110BC08091C60A8F5F80935A
:103A7000C60A0E940B0D811102C01092C60A0E9454
:103A80009F2160934C0C70934D0C80934E0C90933F
:103A90004F0C20914A0C30914B0CAB01421B530B45
:103AA0009A015093490C4093480C203F3A4038F318
:103AB00070934B0C60934A0C0E94A40C4091BF0B76
:103AC0005091C00B9A012B5B3F4FF090EB0B809114
:103AD000F90B9091FA0B2B38310550F5F5FE28C003
:103AE0002091400C3091410C821B930B8D346FEF71
:103AF000960714F488599E4F843B910514F088561C
:103B000091402091EC0B2D70B9F060910E0B689FE5
:103B10009001699F300D112465E0359527956A95D0
:103B2000E1F7421B530B5093C00B4093BF0B04C0F3
:103B30009093410C8093400CF6FE7AC0E091C70A46
:103B4000F091C80A2091C10B3091C20B2E1B3F0B84
:103B5000C90137FF04C088279927821B930B45971B
:103B60000CF446C08091EC0B84FD42C08091C40AE5
:103B70009091C50A820F931F9093C50A8093C40A3F
:103B80009C0197FF04C022273327281B390B2130C3
:103B9000324054F19C0197FF02C021503E4F8901F1
:103BA000012F110F110B0595222717FD2095322F9C
:103BB0004091320C5091330C6091340C7091350C63
:103BC000400F511F621F731F4093320C5093330CF0
:103BD0006093340C7093350C60E072E00E94DB253A
:103BE0009093C50A8093C40A81E08093C30A16C0EB
:103BF0008091C30A882391F08091FB0B9091FC0B7C
:103C0000A091FD0BB091FE0B8093320C9093330C7E
:103C1000A093340CB093350C1092C30A8091300CF1
:103C20009091310C8E0F9F1F9093C20B8093C10B0C
:103C30008F2D887171F08091C10B9091C20B2091F2
:103C4000E70B3091E80B820F931F9093C20B809388
:103C5000C10BF4FE23C08090BD0B9090BE0B97FE6D
:103C600003C09194819491088091BB0B9091BC0BFF
:103C700097FF03C091958195910994018816990643
:103C80000CF49C01213012E0310714F020E032E006
:103C90004901AA2497FCA094BA2C03C0812C912C32
:103CA00054010BEB1BE0188F0F8B00E11CE01E830F
:103CB0000D8301ED1AE01A83098302E81BE01E8BD5
:103CC0000D8B0FEB1AE0188B0F870BEB1AE01E879A
:103CD0000D8707EB1AE01C870B8700E81BE01C8BA5
:103CE0000B8B04E91BE01A8B098B07EF1AE01A878C
:103CF000098706EF1AE018870F8309EC1AE01C8386
:103D00000B8300E010E0EF89F88D41905190F88F1F
:103D1000EF8B440C551CED81FE8180819181E981FE
:103D2000FA81408151819C0197FF04C022273327EB
:103D3000281B390B21383240BCF49201281B390B67
:103D4000C901840F951F81383EE3930714F080E882
:103D50009EE3803841EC940714F480E891ECE9810B
:103D6000FA819183808304C0E981FA8111821082F3
:103D7000E981FA8180819181880F892F881F990BB1
:103D8000E985FA852081289F3001299F700C112434
:103D9000B6E075946794BA95E1F7EF81F885608194
:103DA00070E0C2010E94A3096B017C0186E0F594DA
:103DB000E794D794C7948A95D1F716018091EB0BBD
:103DC000887109F490C0F801EE50F54F808191811F
:103DD000840D951D853FF1E09F0714F084EF91E07D
:103DE0008C302EEF920714F48CE09EEFF801EB502C
:103DF000F44F20813181821B930BF801EA50F54F7B
:103E000025A136A1820F931FEB81FC812081318196
:103E1000280F391F2131F7E23F0714F020E137E284
:103E2000203F48ED340714F420EF38EDEB81FC819E
:103E30003183208360910B0B70E00E94A309F7E0AF
:103E40009595879577956795FA95D1F720910D0B04
:103E5000F5E02F9F9001112444275527421B530B57
:103E60005A8F498F641775073CF07A8F698F261730
:103E7000370714F43A8F298F60910C0B70E0EB81B7
:103E8000FC81808191810E94A3091B012C014CE0DF
:103E900055944794379427944A95D1F7D301A219A2
:103EA000B309A50194010E94592659E0959587957B
:103EB000779567955A95D1F73B01620C731CD60133
:103EC000298D3A8DA21BB30BA50194010E9459269E
:103ED000E9E09595879577956795EA95D1F7298CCF
:103EE0003A8C260E371EED89FE896191FE8BED8B93
:103EF00070E0ED81FE81808191810E94A3096101C2
:103F0000EE24D7FCE094FE2C26E0959587957795D6
:103F100067952A95D1F7C61AD70AE80AF90AED81FA
:103F2000FE8181919191FE83ED83EF85F889208157
:103F30003181AC01421B530B9A0181939193F88B11
:103F4000EF87ED85FE8540815181EB85FC85808181
:103F50009181840F951F41935193FC87EB87ED85E9
:103F6000FE8521933193FE87ED87EB89FC89619172
:103F7000FC8BEB8B70E0820F931F0E94A309C60C91
:103F8000D71C35E095958795779567953A95D1F744
:103F9000C61AD70AE989FA89C192D192FA8BE98BBC
:103FA0000E5F1F4F29813A812E5F3F4F3A8329834D
:103FB00049855A854D5F5F4F5A8749878F8198851C
:103FC000039698878F83EB81FC813296FC83EB8389
:103FD0000430110509F097CE6091170B70E0615F16
:103FE0007F4F660F771F8091BF0B9091C00B0E948F
:103FF000A3096B017C0115E0F594E794D794C7946D
:104000001A95D1F78091140C9091150C5601A81AAD
:10401000B90A6091FD0A70E0C5010E94A3090091F0
:10402000CD0A1091CE0A2091CF0A3091D00AA60174
:10403000D7FE04C0442755274C195D094333510569
:1040400024F5AB01BC01400F511F621F731F4F3F8E
:10405000FFEF5F076F07FFE07F0724F04EEF5FEF92
:104060006FEF7FE042305105610500EF700724F4E7
:1040700042E050E060E070EF4093CD0A5093CE0AEA
:104080006093CF0A7093D00A08C01092CD0A1092A4
:10409000CE0A1092CF0A1092D00A6091FC0A70E00A
:1040A000C5010E94A309A6E0959587957795679528
:1040B000AA95D1F72091FE0A4CE251E0421B51092A
:1040C00022273327241B350B621773072CF09B0123
:1040D000461757070CF49A018091CD0A9091CE0AA9
:1040E000A091CF0AB091D00AFDE0B595A79597951C
:1040F0008795FA95D1F786301FEF910734F08B3F03
:1041000091052CF08AEF90E002C086E09FEF820FCD
:10411000931F9093990B8093980B0E94C2118091EA
:10412000EB0B81FD0CC08091420C9091430C892BCC
:1041300041F48091460C9091470C892B11F40E9418
:10414000BD106A960FB6F894DEBF0FBECDBFDF91EB
:10415000CF911F910F91FF90EF90DF90CF90BF9084
:10416000AF909F908F907F906F905F904F903F9017
:104170002F900C94CE1023FF08C01092D20A1092F8
:10418000D10A1092D40A1092D30A81E08093380C9D
:104190008091EB0B877F8093EB0B84FD0BC010921B
:1041A000CA0A1092C90A1092CC0A1092CB0A8061F6
:1041B0008093EB0B8091360C811105C08091EB0B45
:1041C00081608093EB0B8091390C882341F18091C1
:1041D000EB0B86FD29C080648093EB0B8091FB0B79
:1041E0009091FC0BA091FD0BB091FE0B8093320CD3
:1041F0009093330CA093340CB093350C8091C10B89
:104200009091C20B9093C80A8093C70A10922F0C0A
:1042100010922E0C1092310C1092300C05C080912F
:10422000EB0B8F7B8093EB0B80913A0C882381F012
:104230008091EB0B85FD11C080628093EB0B809128
:10424000F90B9091FA0B9093410C8093400C05C0B0
:104250008091EB0B8F7D8093EB0B80913B0C88233F
:1042600031F08091EB0B87FD07C0806803C080911F
:10427000EB0B8F778093EB0B80913C0C882309F438
:10428000FECB8091F90B9091FA0B90933F0C8093A9
:104290003E0CF5CB23FD79CF1092CA0A1092C90AC1
:1042A0001092CC0A1092CB0A70CF1F920F920FB6C9
:1042B0000F9211242F933F938F939F93AF93BF93AC
:1042C0008091510C9091520CA091530CB091540CD0
:1042D0003091500C23E0230F2D3720F40196A11DBF
:1042E000B11D05C026E8230F0296A11DB11D209324
:1042F000500C8093510C9093520CA093530CB0939C
:10430000540C8091550C9091560CA091570CB09183
:10431000580C0196A11DB11D8093550C9093560C1D
:10432000A093570CB093580CBF91AF919F918F9170
:104330003F912F910F900FBE0F901F9018953FB790
:10434000F8948091550C9091560CA091570CB09117
:10435000580C26B5A89B05C02F3F19F00196A11D4A
:10436000B11D3FBF6627782F892F9A2F620F711DCD
:10437000811D911D42E0660F771F881F991F4A9586
:10438000D1F70895CF92DF92EF92FF92CF93DF9310
:104390006B017C010E949F21EB01C114D104E10457
:1043A000F10489F00E9485220E949F216C1B7D0BE5
:1043B000683E734090F381E0C81AD108E108F10823
:1043C000C851DC4FEACFDF91CF91FF90EF90DF90A3
:1043D000CF900895789484B5826084BD84B581605F
:1043E00084BD85B5826085BD85B5816085BDEEE6FD
:1043F000F0E0808181608083E1E8F0E010828081DC
:1044000082608083808181608083E0E8F0E0808149
:1044100081608083E1EBF0E0808184608083E0EB69
:10442000F0E0808181608083E1E9F0E0808182605A
:104430008083808181608083E0E9F0E08081816019
:104440008083E1EAF0E08081826080838081816006
:104450008083E0EAF0E0808181608083E1E2F1E046
:10446000808182608083808181608083E0E2F1E0EE
:10447000808181608083EAE7F0E0808184608083CE
:104480008081826080838081816080838081806878
:1044900080831092C1000895CF93DF9390E0FC01D8
:1044A000E753FE4F2491FC01E15FFD4F8491882387
:1044B00049F190E0880F991FFC01E159FD4FA5914A
:1044C000B4918B5A9D4FFC01C591D4919FB7611156
:1044D00008C0F8948C91209582238C938881822344
:1044E0000AC0623051F4F8948C91322F30958323B6
:1044F0008C938881822B888304C0F8948C91822BC2
:104500008C939FBFDF91CF91089508954F925F9252
:104510006F927F92AF92BF92CF92DF92EF92FF9213
:104520000F931F93CF93DF93CDB7DEB729013A01E5
:10453000621B730B840B950B2A893B894C895D891F
:104540002A193B094C095D092A8B3B8B4C8B5D8BEF
:104550009B01AC016A897B898C899D890E94CB254E
:10456000E418F50806091709A80197010E94112609
:104570002A0D3B1D4C1D5D1DCA01B901DF91CF9174
:104580001F910F91FF90EF90DF90CF90BF90AF9071
:104590007F906F905F904F90089508950E94EA2158
:1045A0000E94CD220E943F1BC0E0D0E00E94CF1BA2
:1045B0002097E1F30E940000F9CFF8940C9475263F
:1045C000FC0105900020E9F7809590958E0F9F1FC4
:1045D00008955058BB27AA270ED078C141D130F09A
:1045E00046D120F031F49F3F11F41EF436C10EF491
:1045F000E095E7FB2CC1E92F8BD180F3BA17620756
:1046000073078407950718F071F49EF5A3C10EF4A3
:10461000E0950B2EBA2FA02D0B01B90190010C01D2
:10462000CA01A0011124FF27591B99F0593F50F4EA
:10463000503E68F11A16F040A22F232F342F442742
:10464000585FF3CF469537952795A795F04053953A
:10465000C9F77EF41F16BA0B620B730B840BBAF00A
:104660009150A1F0FF0FBB1F661F771F881FC2F775
:104670000EC0BA0F621F731F841F48F48795779589
:104680006795B795F7959E3F08F0B3CF9395880F40
:1046900008F09927EE0F979587950895F0D0E39548
:1046A00026C10CD013C1E3D040F0DAD030F021F4B1
:1046B0005F3F19F0CCC051114EC1CFC029D198F342
:1046C0009923C9F35523B1F3951B550BBB27AA2793
:1046D00062177307840738F09F5F5F4F220F331F05
:1046E000441FAA1FA9F333D00E2E3AF0E0E830D0D1
:1046F00091505040E695001CCAF729D0FE2F27D0D4
:10470000660F771F881FBB1F261737074807AB07A1
:10471000B0E809F0BB0B802DBF01FF2793585F4F16
:104720002AF09E3F510568F092C015C15F3FECF33F
:10473000983EDCF3869577956795B795F7959F5FDB
:10474000C9F7880F911D9695879597F90895E1E02F
:10475000660F771F881FBB1F621773078407BA078E
:1047600020F0621B730B840BBA0BEE1F88F7E095E9
:10477000089504D06894B111EEC00895D1D088F0A6
:104780009F5790F0B92F9927B751A0F0D1F0660F3D
:10479000771F881F991F1AF0BA95C9F712C0B13058
:1047A00081F0D8D0B1E00895D5C0672F782F882741
:1047B000B85F39F0B93FCCF3869577956795B39597
:1047C000D9F73EF490958095709561957F4F8F4F06
:1047D0009F4F0895E89409C097FB3EF4909580950B
:1047E000709561957F4F8F4F9F4F9923A9F0F92FB7
:1047F00096E9BB279395F695879577956795B79535
:10480000F111F8CFFAF4BB0F11F460FF1BC06F5F1A
:104810007F4F8F4F9F4F16C0882311F096E911C02C
:10482000772321F09EE8872F762F05C0662371F04D
:1048300096E8862F70E060E02AF09A95660F771F61
:10484000881FDAF7880F9695879597F9089597F955
:104850009F6780E870E060E008959FEF80EC089526
:1048600000240A941616170618060906089500244F
:104870000A9412161306140605060895EECF50D0BA
:10488000E8F3E894E0E0BB279F57F0F02AED3FE023
:1048900049EC06C0EE0FBB0F661F771F881F28F07C
:1048A000B23A62077307840728F0B25A620B730B9F
:1048B000840BE3959A9572F7803830F49A95BB0F84
:1048C000661F771F881FD2F7904823C1092E0394D3
:1048D000000C11F4882352F0BB0F40F4BF2B11F4ED
:1048E00060FF04C06F5F7F4F8F4F9F4F0895EF931E
:1048F000E0FF06C0A2EA2AED3FE049EC5FEB7BDE79
:10490000E5DF0F90039401FC9058E4EEF0E032C133
:1049100057FD9058440F551F59F05F3F71F0479570
:10492000880F97FB991F61F09F3F79F08795089555
:10493000121613061406551FF2CF4695F1DF08C074
:10494000161617061806991FF1CF86957105610591
:1049500008940895E894BB2766277727CB0197F939
:1049600008950EF0D4C079CF689471CFD9DFC8F321
:104970009923D1F3C6F3DF93CF931F930F93FF9245
:10498000C92FDD2788232AF02197660F771F881FFC
:10499000DAF720E030E040E85FEB9FE3883920F071
:1049A000803E30F021968F7715DEE2E0F1E003C023
:1049B00011DEEFE2F1E0B9D08B01BE01EC01FB2E7C
:1049C0006F5771097595771F880B990B05DF28E1E3
:1049D00032E741E35FE316D0AF2D9801AE01FF90BF
:1049E0000F911F91CF91DF9106DE70CF0BD06ECF6C
:1049F00037DF28F03CDF18F0952309F028CF2DCFC2
:104A00001124A9CF85DFA0F3959FD1F3950F50E036
:104A1000551F629FF001729FBB27F00DB11D639F70
:104A2000AA27F00DB11DAA1F649F6627B00DA11D16
:104A3000661F829F2227B00DA11D621F739FB00DBC
:104A4000A11D621F839FA00D611D221F749F33272C
:104A5000A00D611D231F849F600D211D822F762FC5
:104A60006A2F11249F5750408AF0E1F088234AF0C2
:104A7000EE0FFF1FBB1F661F771F881F915050400E
:104A8000A9F79E3F510570F0E2CE65CF5F3FECF392
:104A9000983EDCF3869577956795B795F795E795FA
:104AA0009F5FC1F7FE2B880F911D9695879597F90B
:104AB00008959F93E4DE0F9007FCEE5F18CFDC01B2
:104AC000CB01FC01F999FECF06C0F2BDE1BDF89A19
:104AD000319600B40D9241505040B8F70895DC0172
:104AE000CB0103C02D910E947A2541505040D0F750
:104AF0000895262FF999FECF1FBA92BD81BD20BD22
:104B00000FB6F894FA9AF99A0FBE019608959F3F4E
:104B100031F0915020F4879577956795B795880F78
:104B2000911D9695879597F90895DF93CF931F93DD
:104B30000F93FF92EF92DF927B018C01689405C086
:104B4000DA2EEF015FDFFE01E894A5912591359102
:104B500045915591AEF3EF014EDDFE019701A8019D
:104B6000DA9479F7DF90EF90FF900F911F91CF913A
:104B7000DF9108959F938F937F936F93FF93EF93AC
:104B80009B01AC0133DFEF91FF91CFDF2F913F917C
:104B90004F915F912BCFDB018F939F930E944E2605
:104BA000BF91AF91A29F800D911DA39F900DB29FC9
:104BB000900D1124089597FB072E16F4009407D04A
:104BC00077FD09D00E94612607FC05D03EF4909540
:104BD00081959F4F0895709561957F4F0895A1E24B
:104BE0001A2EAA1BBB1BFD010DC0AA1FBB1FEE1F67
:104BF000FF1FA217B307E407F50720F0A21BB30BB2
:104C0000E40BF50B661F771F881F991F1A9469F72D
:104C100060957095809590959B01AC01BD01CF0189
:104C20000895052E97FB1EF400940E94282657FD38
:104C300007D00E94EF2507FC03D04EF40C942826E1
:104C400050954095309521953F4F4F4F5F4F0895B8
:104C500090958095709561957F4F8F4F9F4F0895E8
:104C60000E943826332312F48A1B9B0B0C9449268E
:104C7000A29FB001B39FC001A39F700D811D11249D
:104C8000911DB29F700D811D1124911D08950E94E8
:104C90003826B7FF0895821B930B08950E9438268B
:104CA000A59F900DB49F900DA49F800D911D112480
:104CB0000895B7FF0C944E260E944E26821B930B3C
:104CC0000895AA1BBB1B51E107C0AA1FBB1FA61753
:104CD000B70710F0A61BB70B881F991F5A95A9F7A5
:0E4CE00080959095BC01CD010895F894FFCF0A
:104CEE0001000000000000000000000000000002B3
:104CFE00DE05DE05DE05DE05DE05DE05DE05DE058E
:104D0E00030506020708090A0000803F0000803FE5
:104D1E000000803FDC05DC05DC05DC05DC05DC0580
:104D2E00DC05E803641E1E6464646464640410207D
:0E4D3E00408001020801020300040506070080
:00000001FF
